{
  "_format": "hh-sol-artifact-1",
  "contractName": "CrowdfundingDapp",
  "sourceName": "contracts/Crowdfunding-dapp.sol",
  "abi": [
    {
      "anonymous": false,
      "inputs": [
        {
          "indexed": false,
          "internalType": "uint256",
          "name": "campaignId",
          "type": "uint256"
        }
      ],
      "name": "CampaignClosed",
      "type": "event"
    },
    {
      "anonymous": false,
      "inputs": [
        {
          "indexed": false,
          "internalType": "uint256",
          "name": "campaignId",
          "type": "uint256"
        },
        {
          "indexed": false,
          "internalType": "address",
          "name": "owner",
          "type": "address"
        },
        {
          "indexed": false,
          "internalType": "string",
          "name": "title",
          "type": "string"
        },
        {
          "indexed": false,
          "internalType": "uint256",
          "name": "goal",
          "type": "uint256"
        },
        {
          "indexed": false,
          "internalType": "uint256",
          "name": "deadline",
          "type": "uint256"
        }
      ],
      "name": "CampaignCreated",
      "type": "event"
    },
    {
      "anonymous": false,
      "inputs": [
        {
          "indexed": false,
          "internalType": "uint256",
          "name": "campaignId",
          "type": "uint256"
        },
        {
          "indexed": false,
          "internalType": "address",
          "name": "contributor",
          "type": "address"
        },
        {
          "indexed": false,
          "internalType": "uint256",
          "name": "amount",
          "type": "uint256"
        }
      ],
      "name": "ContributionMade",
      "type": "event"
    },
    {
      "anonymous": false,
      "inputs": [
        {
          "indexed": false,
          "internalType": "uint256",
          "name": "campaignId",
          "type": "uint256"
        },
        {
          "indexed": false,
          "internalType": "uint256",
          "name": "milestoneId",
          "type": "uint256"
        },
        {
          "indexed": false,
          "internalType": "uint256",
          "name": "amount",
          "type": "uint256"
        }
      ],
      "name": "FundsReleased",
      "type": "event"
    },
    {
      "anonymous": false,
      "inputs": [
        {
          "indexed": false,
          "internalType": "uint256",
          "name": "campaignId",
          "type": "uint256"
        },
        {
          "indexed": false,
          "internalType": "uint256",
          "name": "milestoneId",
          "type": "uint256"
        },
        {
          "indexed": false,
          "internalType": "string",
          "name": "description",
          "type": "string"
        },
        {
          "indexed": false,
          "internalType": "uint256",
          "name": "target",
          "type": "uint256"
        }
      ],
      "name": "MilestoneAdded",
      "type": "event"
    },
    {
      "anonymous": false,
      "inputs": [
        {
          "indexed": false,
          "internalType": "uint256",
          "name": "campaignId",
          "type": "uint256"
        },
        {
          "indexed": false,
          "internalType": "uint256",
          "name": "milestoneId",
          "type": "uint256"
        },
        {
          "indexed": false,
          "internalType": "address",
          "name": "voter",
          "type": "address"
        },
        {
          "indexed": false,
          "internalType": "bool",
          "name": "vote",
          "type": "bool"
        }
      ],
      "name": "MilestoneVoted",
      "type": "event"
    },
    {
      "anonymous": false,
      "inputs": [
        {
          "indexed": false,
          "internalType": "uint256",
          "name": "campaignId",
          "type": "uint256"
        },
        {
          "indexed": false,
          "internalType": "address",
          "name": "contributor",
          "type": "address"
        },
        {
          "indexed": false,
          "internalType": "uint256",
          "name": "amount",
          "type": "uint256"
        }
      ],
      "name": "RefundIssued",
      "type": "event"
    },
    {
      "inputs": [
        {
          "internalType": "uint256",
          "name": "_campaignId",
          "type": "uint256"
        },
        {
          "internalType": "string",
          "name": "_desc",
          "type": "string"
        },
        {
          "internalType": "uint256",
          "name": "_target",
          "type": "uint256"
        }
      ],
      "name": "addMilestone",
      "outputs": [],
      "stateMutability": "nonpayable",
      "type": "function"
    },
    {
      "inputs": [],
      "name": "campaignCount",
      "outputs": [
        {
          "internalType": "uint256",
          "name": "",
          "type": "uint256"
        }
      ],
      "stateMutability": "view",
      "type": "function"
    },
    {
      "inputs": [
        {
          "internalType": "uint256",
          "name": "_campaignId",
          "type": "uint256"
        }
      ],
      "name": "claimRefund",
      "outputs": [],
      "stateMutability": "nonpayable",
      "type": "function"
    },
    {
      "inputs": [
        {
          "internalType": "uint256",
          "name": "_campaignId",
          "type": "uint256"
        }
      ],
      "name": "closeCampaign",
      "outputs": [],
      "stateMutability": "nonpayable",
      "type": "function"
    },
    {
      "inputs": [
        {
          "internalType": "uint256",
          "name": "_campaignId",
          "type": "uint256"
        }
      ],
      "name": "contribute",
      "outputs": [],
      "stateMutability": "payable",
      "type": "function"
    },
    {
      "inputs": [
        {
          "internalType": "string",
          "name": "_title",
          "type": "string"
        },
        {
          "internalType": "string",
          "name": "_description",
          "type": "string"
        },
        {
          "internalType": "uint256",
          "name": "_fundingGoal",
          "type": "uint256"
        },
        {
          "internalType": "uint256",
          "name": "_durationDays",
          "type": "uint256"
        }
      ],
      "name": "createCampaign",
      "outputs": [],
      "stateMutability": "nonpayable",
      "type": "function"
    },
    {
      "inputs": [
        {
          "internalType": "uint256",
          "name": "_campaignId",
          "type": "uint256"
        }
      ],
      "name": "getCampaign",
      "outputs": [
        {
          "internalType": "address",
          "name": "owner",
          "type": "address"
        },
        {
          "internalType": "string",
          "name": "title",
          "type": "string"
        },
        {
          "internalType": "string",
          "name": "description",
          "type": "string"
        },
        {
          "internalType": "uint256",
          "name": "fundingGoal",
          "type": "uint256"
        },
        {
          "internalType": "uint256",
          "name": "totalFunds",
          "type": "uint256"
        },
        {
          "internalType": "uint256",
          "name": "deadline",
          "type": "uint256"
        },
        {
          "internalType": "bool",
          "name": "isOpen",
          "type": "bool"
        },
        {
          "internalType": "uint256",
          "name": "milestoneCount",
          "type": "uint256"
        }
      ],
      "stateMutability": "view",
      "type": "function"
    },
    {
      "inputs": [
        {
          "internalType": "uint256",
          "name": "_campaignId",
          "type": "uint256"
        }
      ],
      "name": "getContributorCount",
      "outputs": [
        {
          "internalType": "uint256",
          "name": "",
          "type": "uint256"
        }
      ],
      "stateMutability": "view",
      "type": "function"
    },
    {
      "inputs": [
        {
          "internalType": "uint256",
          "name": "_campaignId",
          "type": "uint256"
        }
      ],
      "name": "getContributors",
      "outputs": [
        {
          "internalType": "address[]",
          "name": "",
          "type": "address[]"
        }
      ],
      "stateMutability": "view",
      "type": "function"
    },
    {
      "inputs": [
        {
          "internalType": "uint256",
          "name": "_campaignId",
          "type": "uint256"
        },
        {
          "internalType": "uint256",
          "name": "_milestoneId",
          "type": "uint256"
        }
      ],
      "name": "getMilestone",
      "outputs": [
        {
          "internalType": "string",
          "name": "description",
          "type": "string"
        },
        {
          "internalType": "uint256",
          "name": "targetAmount",
          "type": "uint256"
        },
        {
          "internalType": "bool",
          "name": "isCompleted",
          "type": "bool"
        },
        {
          "internalType": "bool",
          "name": "fundsReleased",
          "type": "bool"
        },
        {
          "internalType": "uint256",
          "name": "votesFor",
          "type": "uint256"
        },
        {
          "internalType": "uint256",
          "name": "votesAgainst",
          "type": "uint256"
        }
      ],
      "stateMutability": "view",
      "type": "function"
    },
    {
      "inputs": [
        {
          "internalType": "uint256",
          "name": "_campaignId",
          "type": "uint256"
        },
        {
          "internalType": "uint256",
          "name": "_milestoneId",
          "type": "uint256"
        }
      ],
      "name": "releaseFunds",
      "outputs": [],
      "stateMutability": "nonpayable",
      "type": "function"
    },
    {
      "inputs": [
        {
          "internalType": "uint256",
          "name": "_campaignId",
          "type": "uint256"
        },
        {
          "internalType": "uint256",
          "name": "_milestoneId",
          "type": "uint256"
        },
        {
          "internalType": "bool",
          "name": "approve",
          "type": "bool"
        }
      ],
      "name": "voteMilestone",
      "outputs": [],
      "stateMutability": "nonpayable",
      "type": "function"
    }
  ],
  "bytecode": "0x608060405234801561000f575f80fd5b5061189a8061001d5f395ff3fe6080604052600436106100a5575f3560e01c8063918cb24111610062578063918cb241146101af57806398df912e146101ce578063a318f269146101ed578063b0e1c1e11461020c578063c1cbbca71461022b578063df7843ae1461023e575f80fd5b806319c5f695146100a95780633c1ab00f146100ea5780635598f8cc146101165780635b7baf64146101495780637274e30d1461016a5780638ed9895c1461017e575b5f80fd5b3480156100b4575f80fd5b506100d76100c3366004611308565b5f908152600160205260409020600a015490565b6040519081526020015b60405180910390f35b3480156100f5575f80fd5b50610109610104366004611308565b61025d565b6040516100e1919061131f565b348015610121575f80fd5b50610135610130366004611308565b6102c9565b6040516100e19897969594939291906113ae565b348015610154575f80fd5b50610168610163366004611308565b610484565b005b348015610175575f80fd5b506100d75f5481565b348015610189575f80fd5b5061019d610198366004611414565b61063b565b6040516100e196959493929190611434565b3480156101ba575f80fd5b506101686101c936600461146f565b610756565b3480156101d9575f80fd5b506101686101e83660046114ee565b6109e5565b3480156101f8575f80fd5b5061016861020736600461153d565b610c15565b348015610217575f80fd5b50610168610226366004611308565b610d5d565b610168610239366004611308565b610e7a565b348015610249575f80fd5b50610168610258366004611414565b6110a2565b5f81815260016020908152604091829020600a018054835181840281018401909452808452606093928301828280156102bd57602002820191905f5260205f20905b81546001600160a01b0316815260019091019060200180831161029f575b50505050509050919050565b5f6060805f805f805f885f811180156102e357505f548111155b6103085760405162461bcd60e51b81526004016102ff906115b5565b60405180910390fd5b5f8a8152600160208190526040909120805460038201546004830154600584015460068501546007860154968601805496976001600160a01b03909616969095600289019594939260ff1691879061035f906115ec565b80601f016020809104026020016040519081016040528092919081815260200182805461038b906115ec565b80156103d65780601f106103ad576101008083540402835291602001916103d6565b820191905f5260205f20905b8154815290600101906020018083116103b957829003601f168201915b505050505096508580546103e9906115ec565b80601f0160208091040260200160405190810160405280929190818152602001828054610415906115ec565b80156104605780601f1061043757610100808354040283529160200191610460565b820191905f5260205f20905b81548152906001019060200180831161044357829003601f168201915b50505050509550995099509950995099509950995099505050919395975091939597565b805f8111801561049557505f548111155b6104b15760405162461bcd60e51b81526004016102ff906115b5565b5f828152600160205260409020600581015442116105065760405162461bcd60e51b815260206004820152601260248201527110d85b5c185a59db881b9bdd08195b99195960721b60448201526064016102ff565b806003015481600401541061055d5760405162461bcd60e51b815260206004820152601760248201527f43616d706169676e20776173207375636365737366756c00000000000000000060448201526064016102ff565b335f9081526009820160205260409020546105b35760405162461bcd60e51b8152602060048201526016602482015275139bc818dbdb9d1c9a589d5d1a5bdb9cc8199bdd5b9960521b60448201526064016102ff565b335f818152600983016020526040808220805490839055905190929183156108fc02918491818181858888f193505050501580156105f3573d5f803e3d5ffd5b50604080518581523360208201529081018290527f7a482fdeb6bc9a1376f597068a214a7a39472bb2eff1b8cad21ba04f49ddca1b906060015b60405180910390a150505050565b60605f805f805f875f8111801561065357505f548111155b61066f5760405162461bcd60e51b81526004016102ff906115b5565b5f8981526001602081815260408084208c85526008810190925290922090810154600282015460038301546004840154845485949360ff808216946101009092041692909186906106bf906115ec565b80601f01602080910402602001604051908101604052809291908181526020018280546106eb906115ec565b80156107365780601f1061070d57610100808354040283529160200191610736565b820191905f5260205f20905b81548152906001019060200180831161071957829003601f168201915b505050505095509850985098509850985098505050509295509295509295565b825f8111801561076757505f548111155b6107835760405162461bcd60e51b81526004016102ff906115b5565b5f84815260016020908152604080832033845260098101909252909120546107ed5760405162461bcd60e51b815260206004820152601a60248201527f4f6e6c7920636f6e7472696275746f72732063616e20766f746500000000000060448201526064016102ff565b5f84118015610800575080600701548411155b6108405760405162461bcd60e51b8152602060048201526011602482015270496e76616c6964206d696c6573746f6e6560781b60448201526064016102ff565b5f8481526008820160209081526040808320338452600581019092529091205460ff16156108a05760405162461bcd60e51b815260206004820152600d60248201526c105b1c9958591e481d9bdd1959609a1b60448201526064016102ff565b6002810154610100900460ff16156109065760405162461bcd60e51b8152602060048201526024808201527f46756e647320616c72656164792072656c656173656420666f72206d696c6573604482015263746f6e6560e01b60648201526084016102ff565b335f9081526005820160205260409020805460ff19166001179055831561094257600381018054905f61093883611638565b9190505550610959565b600481018054905f61095383611638565b91905055505b5f868152600160205260409020600a0154610975600282611650565b826003015411156109905760028201805460ff191660011790555b6040805188815260208101889052339181019190915285151560608201527fab85204cc3f4a5213aaeac56baec47b9fe23ddb7ee575fe3f6d6f2b6226bf830906080015b60405180910390a150505050505050565b835f811180156109f657505f548111155b610a125760405162461bcd60e51b81526004016102ff906115b5565b5f8581526001602052604090205485906001600160a01b03163314610a6f5760405162461bcd60e51b815260206004820152601360248201527213db9b1e481bdddb995c8818d85b8818d85b1b606a1b60448201526064016102ff565b5f86815260016020526040902060060154869060ff16610ac65760405162461bcd60e51b815260206004820152601260248201527110d85b5c185a59db881a5cc818db1bdcd95960721b60448201526064016102ff565b5f8411610b0a5760405162461bcd60e51b81526020600482015260126024820152710546172676574206d757374206265203e20360741b60448201526064016102ff565b5f8781526001602052604090206003810154600482015410610b6e5760405162461bcd60e51b815260206004820152601760248201527f43616d706169676e20616c72656164792066756e64656400000000000000000060448201526064016102ff565b600781018054905f610b7f83611638565b909155505060078101545f908152600882016020526040902080610ba4888a836116cf565b506001810186905560028101805461ffff191690555f60038201819055600482015560078201546040517fc67423104bf96f5ca8826913ae711e8c2254e1b2c04af907b2312853ed4cbed291610c02918c91908c908c908c906117b1565b60405180910390a1505050505050505050565b5f8211610c575760405162461bcd60e51b815260206004820152601060248201526f0476f616c206d757374206265203e20360841b60448201526064016102ff565b5f8111610c9d5760405162461bcd60e51b815260206004820152601460248201527304475726174696f6e206d757374206265203e20360641b60448201526064016102ff565b5f80549080610cab83611638565b90915550505f8054815260016020819052604090912080546001600160a01b03191633178155908101610cdf8789836116cf565b5060028101610cef8587836116cf565b5060038101839055610d0482620151806117e2565b610d0e90426117ff565b6005820181905560068201805460ff191660011790555f546040517fdc26653af5b99b2da33e2ad69ee6600d9aeccc82b034501db4338309615ca238926109d4929133918c918c918a91611812565b805f81118015610d6e57505f548111155b610d8a5760405162461bcd60e51b81526004016102ff906115b5565b5f8281526001602052604090206005810154421015610de25760405162461bcd60e51b8152602060048201526014602482015273111958591b1a5b99481b9bdd081c995858da195960621b60448201526064016102ff565b600681015460ff16610e365760405162461bcd60e51b815260206004820152601760248201527f43616d706169676e20616c726561647920636c6f73656400000000000000000060448201526064016102ff565b60068101805460ff191690556040518381527f5e6eb33a418de5dbbc17f989f7ae362cdfbb1748c5d603137c767027a354edbc9060200160405180910390a1505050565b805f81118015610e8b57505f548111155b610ea75760405162461bcd60e51b81526004016102ff906115b5565b5f82815260016020526040902060060154829060ff16610efe5760405162461bcd60e51b815260206004820152601260248201527110d85b5c185a59db881a5cc818db1bdcd95960721b60448201526064016102ff565b5f83815260016020526040902060058101544210610f515760405162461bcd60e51b815260206004820152601060248201526f10d85b5c185a59db88195e1c1a5c995960821b60448201526064016102ff565b5f3411610f975760405162461bcd60e51b815260206004820152601460248201527326bab9ba1039b2b7321039b7b6b29032ba3432b960611b60448201526064016102ff565b335f9081526009820160205260408120549003610fd557600a810180546001810182555f91825260209091200180546001600160a01b031916331790555b335f90815260098201602052604081208054349290610ff59084906117ff565b9250508190555034816004015f82825461100f91906117ff565b909155505060038101546004820154106110635760068101805460ff191690556040518481527f5e6eb33a418de5dbbc17f989f7ae362cdfbb1748c5d603137c767027a354edbc9060200160405180910390a15b6040805185815233602082015234918101919091527f0a4a91237423e0a1766a761c7cb029311d8b95d6b1b81db1b949a70c98b4e08e9060600161062d565b5f8281526001602052604090205482906001600160a01b031633146110ff5760405162461bcd60e51b815260206004820152601360248201527213db9b1e481bdddb995c8818d85b8818d85b1b606a1b60448201526064016102ff565b825f8111801561111057505f548111155b61112c5760405162461bcd60e51b81526004016102ff906115b5565b5f84815260016020908152604080832086845260088101909252909120600281015460ff1661119d5760405162461bcd60e51b815260206004820152601a60248201527f4d696c6573746f6e65206e6f7420617070726f7665642079657400000000000060448201526064016102ff565b6002810154610100900460ff16156111f05760405162461bcd60e51b8152602060048201526016602482015275119d5b991cc8185b1c9958591e481c995b19585cd95960521b60448201526064016102ff565b5f82600b015483600401546112059190611851565b9050816001015481101561125b5760405162461bcd60e51b815260206004820152601c60248201527f496e73756666696369656e7420617661696c61626c652066756e64730000000060448201526064016102ff565b60028201805461ff0019166101001790556001820154600b840180545f906112849084906117ff565b9091555050825460018301546040516001600160a01b039092169181156108fc0291905f818181858888f193505050501580156112c3573d5f803e3d5ffd5b5060018201546040805189815260208101899052908101919091527f24d2f6e8ac6c13d1e7610752ab0b7ce03d5043806a65d3d631ae859ad81d159b906060016109d4565b5f60208284031215611318575f80fd5b5035919050565b602080825282518282018190525f9190848201906040850190845b8181101561135f5783516001600160a01b03168352928401929184019160010161133a565b50909695505050505050565b5f81518084525f5b8181101561138f57602081850181015186830182015201611373565b505f602082860101526020601f19601f83011685010191505092915050565b6001600160a01b0389168152610100602082018190525f906113d28382018b61136b565b905082810360408401526113e6818a61136b565b60608401989098525050608081019490945260a0840192909252151560c083015260e0909101529392505050565b5f8060408385031215611425575f80fd5b50508035926020909101359150565b60c081525f61144660c083018961136b565b60208301979097525093151560408501529115156060840152608083015260a090910152919050565b5f805f60608486031215611481575f80fd5b83359250602084013591506040840135801515811461149e575f80fd5b809150509250925092565b5f8083601f8401126114b9575f80fd5b50813567ffffffffffffffff8111156114d0575f80fd5b6020830191508360208285010111156114e7575f80fd5b9250929050565b5f805f8060608587031215611501575f80fd5b84359350602085013567ffffffffffffffff81111561151e575f80fd5b61152a878288016114a9565b9598909750949560400135949350505050565b5f805f805f8060808789031215611552575f80fd5b863567ffffffffffffffff80821115611569575f80fd5b6115758a838b016114a9565b9098509650602089013591508082111561158d575f80fd5b5061159a89828a016114a9565b979a9699509760408101359660609091013595509350505050565b60208082526017908201527f43616d706169676e20646f6573206e6f74206578697374000000000000000000604082015260600190565b600181811c9082168061160057607f821691505b60208210810361161e57634e487b7160e01b5f52602260045260245ffd5b50919050565b634e487b7160e01b5f52601160045260245ffd5b5f6001820161164957611649611624565b5060010190565b5f8261166a57634e487b7160e01b5f52601260045260245ffd5b500490565b634e487b7160e01b5f52604160045260245ffd5b601f8211156116ca57805f5260205f20601f840160051c810160208510156116a85750805b601f840160051c820191505b818110156116c7575f81556001016116b4565b50505b505050565b67ffffffffffffffff8311156116e7576116e761166f565b6116fb836116f583546115ec565b83611683565b5f601f84116001811461172c575f85156117155750838201355b5f19600387901b1c1916600186901b1783556116c7565b5f83815260208120601f198716915b8281101561175b578685013582556020948501946001909201910161173b565b5086821015611777575f1960f88860031b161c19848701351681555b505060018560011b0183555050505050565b81835281816020850137505f828201602090810191909152601f909101601f19169091010190565b858152846020820152608060408201525f6117d0608083018587611789565b90508260608301529695505050505050565b80820281158282048414176117f9576117f9611624565b92915050565b808201808211156117f9576117f9611624565b8681526001600160a01b038616602082015260a0604082018190525f9061183c9083018688611789565b60608301949094525060800152949350505050565b818103818111156117f9576117f961162456fea2646970667358221220ca152da7ff4d7ca41d30ee03bced338a380e3e45802e8707e924ac72600129f764736f6c63430008180033",
  "linkReferences": {},
  "deployedLinkReferences": {}
}